{
  "_format": "hh-sol-artifact-1",
  "contractName": "NFTManager",
  "sourceName": "contracts/NFTManager.sol",
  "abi": [
    {
      "inputs": [],
      "stateMutability": "nonpayable",
      "type": "constructor"
    },
    {
      "anonymous": false,
      "inputs": [
        {
          "indexed": false,
          "internalType": "uint256",
          "name": "animalId",
          "type": "uint256"
        },
        {
          "indexed": false,
          "internalType": "string",
          "name": "name",
          "type": "string"
        },
        {
          "indexed": false,
          "internalType": "string",
          "name": "breed",
          "type": "string"
        },
        {
          "indexed": false,
          "internalType": "string",
          "name": "animalType",
          "type": "string"
        },
        {
          "indexed": false,
          "internalType": "string",
          "name": "photoURI",
          "type": "string"
        },
        {
          "indexed": false,
          "internalType": "uint256",
          "name": "birthYear",
          "type": "uint256"
        }
      ],
      "name": "AnimalRegistered",
      "type": "event"
    },
    {
      "anonymous": false,
      "inputs": [
        {
          "indexed": true,
          "internalType": "address",
          "name": "owner",
          "type": "address"
        },
        {
          "indexed": true,
          "internalType": "address",
          "name": "approved",
          "type": "address"
        },
        {
          "indexed": true,
          "internalType": "uint256",
          "name": "tokenId",
          "type": "uint256"
        }
      ],
      "name": "Approval",
      "type": "event"
    },
    {
      "anonymous": false,
      "inputs": [
        {
          "indexed": true,
          "internalType": "address",
          "name": "owner",
          "type": "address"
        },
        {
          "indexed": true,
          "internalType": "address",
          "name": "operator",
          "type": "address"
        },
        {
          "indexed": false,
          "internalType": "bool",
          "name": "approved",
          "type": "bool"
        }
      ],
      "name": "ApprovalForAll",
      "type": "event"
    },
    {
      "anonymous": false,
      "inputs": [
        {
          "indexed": false,
          "internalType": "uint256",
          "name": "tokenId",
          "type": "uint256"
        },
        {
          "indexed": false,
          "internalType": "uint256",
          "name": "animalId",
          "type": "uint256"
        },
        {
          "indexed": false,
          "internalType": "string",
          "name": "action",
          "type": "string"
        },
        {
          "indexed": false,
          "internalType": "string",
          "name": "metadataURI",
          "type": "string"
        }
      ],
      "name": "NFTAwarded",
      "type": "event"
    },
    {
      "anonymous": false,
      "inputs": [
        {
          "indexed": true,
          "internalType": "address",
          "name": "from",
          "type": "address"
        },
        {
          "indexed": true,
          "internalType": "address",
          "name": "to",
          "type": "address"
        },
        {
          "indexed": true,
          "internalType": "uint256",
          "name": "tokenId",
          "type": "uint256"
        }
      ],
      "name": "Transfer",
      "type": "event"
    },
    {
      "inputs": [],
      "name": "actionCounter",
      "outputs": [
        {
          "internalType": "uint256",
          "name": "",
          "type": "uint256"
        }
      ],
      "stateMutability": "view",
      "type": "function"
    },
    {
      "inputs": [],
      "name": "admin",
      "outputs": [
        {
          "internalType": "address",
          "name": "",
          "type": "address"
        }
      ],
      "stateMutability": "view",
      "type": "function"
    },
    {
      "inputs": [
        {
          "internalType": "uint256",
          "name": "",
          "type": "uint256"
        }
      ],
      "name": "animalActions",
      "outputs": [
        {
          "internalType": "uint256",
          "name": "animalId",
          "type": "uint256"
        },
        {
          "internalType": "string",
          "name": "action",
          "type": "string"
        },
        {
          "internalType": "string",
          "name": "metadataURI",
          "type": "string"
        }
      ],
      "stateMutability": "view",
      "type": "function"
    },
    {
      "inputs": [],
      "name": "animalCounter",
      "outputs": [
        {
          "internalType": "uint256",
          "name": "",
          "type": "uint256"
        }
      ],
      "stateMutability": "view",
      "type": "function"
    },
    {
      "inputs": [
        {
          "internalType": "uint256",
          "name": "",
          "type": "uint256"
        }
      ],
      "name": "animals",
      "outputs": [
        {
          "internalType": "string",
          "name": "name",
          "type": "string"
        },
        {
          "internalType": "string",
          "name": "breed",
          "type": "string"
        },
        {
          "internalType": "string",
          "name": "animalType",
          "type": "string"
        },
        {
          "internalType": "string",
          "name": "photoURI",
          "type": "string"
        },
        {
          "internalType": "uint256",
          "name": "birthYear",
          "type": "uint256"
        },
        {
          "internalType": "bool",
          "name": "exists",
          "type": "bool"
        }
      ],
      "stateMutability": "view",
      "type": "function"
    },
    {
      "inputs": [
        {
          "internalType": "address",
          "name": "to",
          "type": "address"
        },
        {
          "internalType": "uint256",
          "name": "tokenId",
          "type": "uint256"
        }
      ],
      "name": "approve",
      "outputs": [],
      "stateMutability": "nonpayable",
      "type": "function"
    },
    {
      "inputs": [
        {
          "internalType": "address",
          "name": "owner",
          "type": "address"
        }
      ],
      "name": "balanceOf",
      "outputs": [
        {
          "internalType": "uint256",
          "name": "",
          "type": "uint256"
        }
      ],
      "stateMutability": "view",
      "type": "function"
    },
    {
      "inputs": [
        {
          "internalType": "uint256",
          "name": "tokenId",
          "type": "uint256"
        }
      ],
      "name": "getApproved",
      "outputs": [
        {
          "internalType": "address",
          "name": "",
          "type": "address"
        }
      ],
      "stateMutability": "view",
      "type": "function"
    },
    {
      "inputs": [
        {
          "internalType": "address",
          "name": "owner",
          "type": "address"
        },
        {
          "internalType": "address",
          "name": "operator",
          "type": "address"
        }
      ],
      "name": "isApprovedForAll",
      "outputs": [
        {
          "internalType": "bool",
          "name": "",
          "type": "bool"
        }
      ],
      "stateMutability": "view",
      "type": "function"
    },
    {
      "inputs": [
        {
          "internalType": "uint256",
          "name": "animalId",
          "type": "uint256"
        },
        {
          "internalType": "string",
          "name": "action",
          "type": "string"
        },
        {
          "internalType": "string",
          "name": "metadataURI",
          "type": "string"
        }
      ],
      "name": "issueNFT",
      "outputs": [],
      "stateMutability": "nonpayable",
      "type": "function"
    },
    {
      "inputs": [],
      "name": "name",
      "outputs": [
        {
          "internalType": "string",
          "name": "",
          "type": "string"
        }
      ],
      "stateMutability": "view",
      "type": "function"
    },
    {
      "inputs": [
        {
          "internalType": "uint256",
          "name": "tokenId",
          "type": "uint256"
        }
      ],
      "name": "ownerOf",
      "outputs": [
        {
          "internalType": "address",
          "name": "",
          "type": "address"
        }
      ],
      "stateMutability": "view",
      "type": "function"
    },
    {
      "inputs": [
        {
          "internalType": "string",
          "name": "name",
          "type": "string"
        },
        {
          "internalType": "string",
          "name": "breed",
          "type": "string"
        },
        {
          "internalType": "string",
          "name": "animalType",
          "type": "string"
        },
        {
          "internalType": "string",
          "name": "photoURI",
          "type": "string"
        },
        {
          "internalType": "uint256",
          "name": "birthYear",
          "type": "uint256"
        }
      ],
      "name": "registerAnimal",
      "outputs": [],
      "stateMutability": "nonpayable",
      "type": "function"
    },
    {
      "inputs": [
        {
          "internalType": "address",
          "name": "from",
          "type": "address"
        },
        {
          "internalType": "address",
          "name": "to",
          "type": "address"
        },
        {
          "internalType": "uint256",
          "name": "tokenId",
          "type": "uint256"
        }
      ],
      "name": "safeTransferFrom",
      "outputs": [],
      "stateMutability": "nonpayable",
      "type": "function"
    },
    {
      "inputs": [
        {
          "internalType": "address",
          "name": "from",
          "type": "address"
        },
        {
          "internalType": "address",
          "name": "to",
          "type": "address"
        },
        {
          "internalType": "uint256",
          "name": "tokenId",
          "type": "uint256"
        },
        {
          "internalType": "bytes",
          "name": "data",
          "type": "bytes"
        }
      ],
      "name": "safeTransferFrom",
      "outputs": [],
      "stateMutability": "nonpayable",
      "type": "function"
    },
    {
      "inputs": [
        {
          "internalType": "address",
          "name": "operator",
          "type": "address"
        },
        {
          "internalType": "bool",
          "name": "approved",
          "type": "bool"
        }
      ],
      "name": "setApprovalForAll",
      "outputs": [],
      "stateMutability": "nonpayable",
      "type": "function"
    },
    {
      "inputs": [
        {
          "internalType": "bytes4",
          "name": "interfaceId",
          "type": "bytes4"
        }
      ],
      "name": "supportsInterface",
      "outputs": [
        {
          "internalType": "bool",
          "name": "",
          "type": "bool"
        }
      ],
      "stateMutability": "view",
      "type": "function"
    },
    {
      "inputs": [],
      "name": "symbol",
      "outputs": [
        {
          "internalType": "string",
          "name": "",
          "type": "string"
        }
      ],
      "stateMutability": "view",
      "type": "function"
    },
    {
      "inputs": [
        {
          "internalType": "uint256",
          "name": "tokenId",
          "type": "uint256"
        }
      ],
      "name": "tokenURI",
      "outputs": [
        {
          "internalType": "string",
          "name": "",
          "type": "string"
        }
      ],
      "stateMutability": "view",
      "type": "function"
    },
    {
      "inputs": [
        {
          "internalType": "address",
          "name": "from",
          "type": "address"
        },
        {
          "internalType": "address",
          "name": "to",
          "type": "address"
        },
        {
          "internalType": "uint256",
          "name": "tokenId",
          "type": "uint256"
        }
      ],
      "name": "transferFrom",
      "outputs": [],
      "stateMutability": "nonpayable",
      "type": "function"
    }
  ],
  "bytecode": "0x6080604052600060085560006009553480156200001b57600080fd5b506040518060400160405280600d81526020016c105b9a5b585b10d85c99539195609a1b815250604051806040016040528060058152602001641050d3919560da1b815250816000908162000071919062000140565b50600162000080828262000140565b5050600780546001600160a01b03191633179055506200020c565b634e487b7160e01b600052604160045260246000fd5b600181811c90821680620000c657607f821691505b602082108103620000e757634e487b7160e01b600052602260045260246000fd5b50919050565b601f8211156200013b57600081815260208120601f850160051c81016020861015620001165750805b601f850160051c820191505b81811015620001375782815560010162000122565b5050505b505050565b81516001600160401b038111156200015c576200015c6200009b565b62000174816200016d8454620000b1565b84620000ed565b602080601f831160018114620001ac5760008415620001935750858301515b600019600386901b1c1916600185901b17855562000137565b600085815260208120601f198616915b82811015620001dd57888601518255948401946001909101908401620001bc565b5085821015620001fc5787850151600019600388901b60f8161c191681555b5050505050600190811b01905550565b611f48806200021c6000396000f3fe608060405234801561001057600080fd5b506004361061012c5760003560e01c8063959564e1116100ad578063c87b56dd11610071578063c87b56dd146102a3578063e985e9c5146102b6578063f5304d9d146102c9578063f851a440146102d2578063fdbd98b0146102e557600080fd5b8063959564e11461023d57806395d89b4114610250578063998dd3ca14610258578063a22cb4651461027d578063b88d4fde1461029057600080fd5b806323b872dd116100f457806323b872dd146101d057806342842e0e146101e35780634c5c1348146101f65780636352211e1461020957806370a082311461021c57600080fd5b806301ffc9a71461013157806306fdde0314610159578063081812fc1461016e578063095ea7b3146101995780630999bca6146101ae575b600080fd5b61014461013f366004611717565b6102ee565b60405190151581526020015b60405180910390f35b610161610340565b6040516101509190611784565b61018161017c366004611797565b6103d2565b6040516001600160a01b039091168152602001610150565b6101ac6101a73660046117cc565b6103f9565b005b6101c16101bc366004611797565b610513565b604051610150939291906117f6565b6101ac6101de36600461182b565b610646565b6101ac6101f136600461182b565b610677565b6101ac610204366004611913565b610692565b610181610217366004611797565b610801565b61022f61022a3660046119c8565b610861565b604051908152602001610150565b6101ac61024b3660046119e3565b6108e7565b610161610a84565b61026b610266366004611797565b610a93565b60405161015096959493929190611a50565b6101ac61028b366004611ab8565b610ceb565b6101ac61029e366004611af4565b610cfa565b6101616102b1366004611797565b610d32565b6101446102c4366004611b70565b610e42565b61022f60085481565b600754610181906001600160a01b031681565b61022f60095481565b60006001600160e01b031982166380ac58cd60e01b148061031f57506001600160e01b03198216635b5e139f60e01b145b8061033a57506301ffc9a760e01b6001600160e01b03198316145b92915050565b60606000805461034f90611ba3565b80601f016020809104026020016040519081016040528092919081815260200182805461037b90611ba3565b80156103c85780601f1061039d576101008083540402835291602001916103c8565b820191906000526020600020905b8154815290600101906020018083116103ab57829003601f168201915b5050505050905090565b60006103dd82610e70565b506000908152600460205260409020546001600160a01b031690565b600061040482610801565b9050806001600160a01b0316836001600160a01b0316036104765760405162461bcd60e51b815260206004820152602160248201527f4552433732313a20617070726f76616c20746f2063757272656e74206f776e656044820152603960f91b60648201526084015b60405180910390fd5b336001600160a01b038216148061049257506104928133610e42565b6105045760405162461bcd60e51b815260206004820152603d60248201527f4552433732313a20617070726f76652063616c6c6572206973206e6f7420746f60448201527f6b656e206f776e6572206f7220617070726f76656420666f7220616c6c000000606482015260840161046d565b61050e8383610ed2565b505050565b600b602052600090815260409020805460018201805491929161053590611ba3565b80601f016020809104026020016040519081016040528092919081815260200182805461056190611ba3565b80156105ae5780601f10610583576101008083540402835291602001916105ae565b820191906000526020600020905b81548152906001019060200180831161059157829003601f168201915b5050505050908060020180546105c390611ba3565b80601f01602080910402602001604051908101604052809291908181526020018280546105ef90611ba3565b801561063c5780601f106106115761010080835404028352916020019161063c565b820191906000526020600020905b81548152906001019060200180831161061f57829003601f168201915b5050505050905083565b6106503382610f40565b61066c5760405162461bcd60e51b815260040161046d90611bdd565b61050e838383610f9e565b61050e83838360405180602001604052806000815250610cfa565b6007546001600160a01b031633146106ec5760405162461bcd60e51b815260206004820152601f60248201527f4f6e6c792061646d696e2063616e20726567697374657220616e696d616c7300604482015260640161046d565b600060085460016106fd9190611c2a565b6040805160c08101825288815260208082018990528183018890526060820187905260808201869052600160a08301526000848152600a9091529190912081519293509091819061074e9082611c99565b50602082015160018201906107639082611c99565b50604082015160028201906107789082611c99565b506060820151600382019061078d9082611c99565b506080820151600482015560a0909101516005909101805460ff191691151591909117905560088190556040517f33d5857148d69ef370d19d2c3c199633d9c6d57a2b82a37548f475e6d77464bd906107f190839089908990899089908990611d59565b60405180910390a1505050505050565b6000818152600260205260408120546001600160a01b03168061033a5760405162461bcd60e51b8152602060048201526018602482015277115490cdcc8c4e881a5b9d985b1a59081d1bdad95b88125160421b604482015260640161046d565b60006001600160a01b0382166108cb5760405162461bcd60e51b815260206004820152602960248201527f4552433732313a2061646472657373207a65726f206973206e6f7420612076616044820152683634b21037bbb732b960b91b606482015260840161046d565b506001600160a01b031660009081526003602052604090205490565b6007546001600160a01b031633146109415760405162461bcd60e51b815260206004820152601960248201527f4f6e6c792061646d696e2063616e206973737565204e46547300000000000000604482015260640161046d565b6000838152600a602052604090206005015460ff166109bc57600192506040518060400160405280600a8152602001693b30b1bab730b1b4b7b760b11b81525091506040518060400160405280601b81526020017f697066733a2f2f64656661756c742d6d657461646174612d757269000000000081525090505b600060095460016109cd9190611c2a565b90506109d93382611102565b6109e3818361128d565b6040805160608101825285815260208082018681528284018690526000858152600b9092529290208151815591519091906001820190610a239082611c99565b5060408201516002820190610a389082611c99565b50505060098190556040517f11c55791b46b0f0831ee4fcbe08daa239b544888fff9da788917e044c0a96f7490610a76908390879087908790611dc0565b60405180910390a150505050565b60606001805461034f90611ba3565b600a60205260009081526040902080548190610aae90611ba3565b80601f0160208091040260200160405190810160405280929190818152602001828054610ada90611ba3565b8015610b275780601f10610afc57610100808354040283529160200191610b27565b820191906000526020600020905b815481529060010190602001808311610b0a57829003601f168201915b505050505090806001018054610b3c90611ba3565b80601f0160208091040260200160405190810160405280929190818152602001828054610b6890611ba3565b8015610bb55780601f10610b8a57610100808354040283529160200191610bb5565b820191906000526020600020905b815481529060010190602001808311610b9857829003601f168201915b505050505090806002018054610bca90611ba3565b80601f0160208091040260200160405190810160405280929190818152602001828054610bf690611ba3565b8015610c435780601f10610c1857610100808354040283529160200191610c43565b820191906000526020600020905b815481529060010190602001808311610c2657829003601f168201915b505050505090806003018054610c5890611ba3565b80601f0160208091040260200160405190810160405280929190818152602001828054610c8490611ba3565b8015610cd15780601f10610ca657610100808354040283529160200191610cd1565b820191906000526020600020905b815481529060010190602001808311610cb457829003601f168201915b50505050600483015460059093015491929160ff16905086565b610cf6338383611320565b5050565b610d043383610f40565b610d205760405162461bcd60e51b815260040161046d90611bdd565b610d2c848484846113ee565b50505050565b6060610d3d82610e70565b60008281526006602052604081208054610d5690611ba3565b80601f0160208091040260200160405190810160405280929190818152602001828054610d8290611ba3565b8015610dcf5780601f10610da457610100808354040283529160200191610dcf565b820191906000526020600020905b815481529060010190602001808311610db257829003601f168201915b505050505090506000610ded60408051602081019091526000815290565b90508051600003610dff575092915050565b815115610e31578082604051602001610e19929190611dfc565b60405160208183030381529060405292505050919050565b610e3a84611421565b949350505050565b6001600160a01b03918216600090815260056020908152604080832093909416825291909152205460ff1690565b6000818152600260205260409020546001600160a01b0316610ecf5760405162461bcd60e51b8152602060048201526018602482015277115490cdcc8c4e881a5b9d985b1a59081d1bdad95b88125160421b604482015260640161046d565b50565b600081815260046020526040902080546001600160a01b0319166001600160a01b0384169081179091558190610f0782610801565b6001600160a01b03167f8c5be1e5ebec7d5bd14f71427d1e84f3dd0314c0f7b2291e5b200ac8c7c3b92560405160405180910390a45050565b600080610f4c83610801565b9050806001600160a01b0316846001600160a01b03161480610f735750610f738185610e42565b80610e3a5750836001600160a01b0316610f8c846103d2565b6001600160a01b031614949350505050565b826001600160a01b0316610fb182610801565b6001600160a01b031614610fd75760405162461bcd60e51b815260040161046d90611e2b565b6001600160a01b0382166110395760405162461bcd60e51b8152602060048201526024808201527f4552433732313a207472616e7366657220746f20746865207a65726f206164646044820152637265737360e01b606482015260840161046d565b826001600160a01b031661104c82610801565b6001600160a01b0316146110725760405162461bcd60e51b815260040161046d90611e2b565b600081815260046020908152604080832080546001600160a01b03199081169091556001600160a01b0387811680865260038552838620805460001901905590871680865283862080546001019055868652600290945282852080549092168417909155905184937fddf252ad1be2c89b69c2b068fc378daa952ba7f163c4a11628f55a4df523b3ef91a4505050565b6001600160a01b0382166111585760405162461bcd60e51b815260206004820181905260248201527f4552433732313a206d696e7420746f20746865207a65726f2061646472657373604482015260640161046d565b6000818152600260205260409020546001600160a01b0316156111bd5760405162461bcd60e51b815260206004820152601c60248201527f4552433732313a20746f6b656e20616c7265616479206d696e74656400000000604482015260640161046d565b6000818152600260205260409020546001600160a01b0316156112225760405162461bcd60e51b815260206004820152601c60248201527f4552433732313a20746f6b656e20616c7265616479206d696e74656400000000604482015260640161046d565b6001600160a01b038216600081815260036020908152604080832080546001019055848352600290915280822080546001600160a01b0319168417905551839291907fddf252ad1be2c89b69c2b068fc378daa952ba7f163c4a11628f55a4df523b3ef908290a45050565b6000828152600260205260409020546001600160a01b03166113085760405162461bcd60e51b815260206004820152602e60248201527f45524337323155524953746f726167653a2055524920736574206f66206e6f6e60448201526d32bc34b9ba32b73a103a37b5b2b760911b606482015260840161046d565b600082815260066020526040902061050e8282611c99565b816001600160a01b0316836001600160a01b0316036113815760405162461bcd60e51b815260206004820152601960248201527f4552433732313a20617070726f766520746f2063616c6c657200000000000000604482015260640161046d565b6001600160a01b03838116600081815260056020908152604080832094871680845294825291829020805460ff191686151590811790915591519182527f17307eab39ab6107e8899845ad3d59bd9653f200f220920489ca2b5937696c31910160405180910390a3505050565b6113f9848484610f9e565b61140584848484611495565b610d2c5760405162461bcd60e51b815260040161046d90611e70565b606061142c82610e70565b600061144360408051602081019091526000815290565b90506000815111611463576040518060200160405280600081525061148e565b8061146d84611596565b60405160200161147e929190611dfc565b6040516020818303038152906040525b9392505050565b60006001600160a01b0384163b1561158b57604051630a85bd0160e11b81526001600160a01b0385169063150b7a02906114d9903390899088908890600401611ec2565b6020604051808303816000875af1925050508015611514575060408051601f3d908101601f1916820190925261151191810190611ef5565b60015b611571573d808015611542576040519150601f19603f3d011682016040523d82523d6000602084013e611547565b606091505b5080516000036115695760405162461bcd60e51b815260040161046d90611e70565b805181602001fd5b6001600160e01b031916630a85bd0160e11b149050610e3a565b506001949350505050565b606060006115a383611629565b600101905060008167ffffffffffffffff8111156115c3576115c3611867565b6040519080825280601f01601f1916602001820160405280156115ed576020820181803683370190505b5090508181016020015b600019016f181899199a1a9b1b9c1cb0b131b232b360811b600a86061a8153600a85049450846115f757509392505050565b60008072184f03e93ff9f4daa797ed6e38ed64bf6a1f0160401b83106116685772184f03e93ff9f4daa797ed6e38ed64bf6a1f0160401b830492506040015b6d04ee2d6d415b85acef81000000008310611694576d04ee2d6d415b85acef8100000000830492506020015b662386f26fc1000083106116b257662386f26fc10000830492506010015b6305f5e10083106116ca576305f5e100830492506008015b61271083106116de57612710830492506004015b606483106116f0576064830492506002015b600a831061033a5760010192915050565b6001600160e01b031981168114610ecf57600080fd5b60006020828403121561172957600080fd5b813561148e81611701565b60005b8381101561174f578181015183820152602001611737565b50506000910152565b60008151808452611770816020860160208601611734565b601f01601f19169290920160200192915050565b60208152600061148e6020830184611758565b6000602082840312156117a957600080fd5b5035919050565b80356001600160a01b03811681146117c757600080fd5b919050565b600080604083850312156117df57600080fd5b6117e8836117b0565b946020939093013593505050565b83815260606020820152600061180f6060830185611758565b82810360408401526118218185611758565b9695505050505050565b60008060006060848603121561184057600080fd5b611849846117b0565b9250611857602085016117b0565b9150604084013590509250925092565b634e487b7160e01b600052604160045260246000fd5b600067ffffffffffffffff8084111561189857611898611867565b604051601f8501601f19908116603f011681019082821181831017156118c0576118c0611867565b816040528093508581528686860111156118d957600080fd5b858560208301376000602087830101525050509392505050565b600082601f83011261190457600080fd5b61148e8383356020850161187d565b600080600080600060a0868803121561192b57600080fd5b853567ffffffffffffffff8082111561194357600080fd5b61194f89838a016118f3565b9650602088013591508082111561196557600080fd5b61197189838a016118f3565b9550604088013591508082111561198757600080fd5b61199389838a016118f3565b945060608801359150808211156119a957600080fd5b506119b6888289016118f3565b95989497509295608001359392505050565b6000602082840312156119da57600080fd5b61148e826117b0565b6000806000606084860312156119f857600080fd5b83359250602084013567ffffffffffffffff80821115611a1757600080fd5b611a23878388016118f3565b93506040860135915080821115611a3957600080fd5b50611a46868287016118f3565b9150509250925092565b60c081526000611a6360c0830189611758565b8281036020840152611a758189611758565b90508281036040840152611a898188611758565b90508281036060840152611a9d8187611758565b6080840195909552505090151560a090910152949350505050565b60008060408385031215611acb57600080fd5b611ad4836117b0565b915060208301358015158114611ae957600080fd5b809150509250929050565b60008060008060808587031215611b0a57600080fd5b611b13856117b0565b9350611b21602086016117b0565b925060408501359150606085013567ffffffffffffffff811115611b4457600080fd5b8501601f81018713611b5557600080fd5b611b648782356020840161187d565b91505092959194509250565b60008060408385031215611b8357600080fd5b611b8c836117b0565b9150611b9a602084016117b0565b90509250929050565b600181811c90821680611bb757607f821691505b602082108103611bd757634e487b7160e01b600052602260045260246000fd5b50919050565b6020808252602d908201527f4552433732313a2063616c6c6572206973206e6f7420746f6b656e206f776e6560408201526c1c881bdc88185c1c1c9bdd9959609a1b606082015260800190565b8082018082111561033a57634e487b7160e01b600052601160045260246000fd5b601f82111561050e57600081815260208120601f850160051c81016020861015611c725750805b601f850160051c820191505b81811015611c9157828155600101611c7e565b505050505050565b815167ffffffffffffffff811115611cb357611cb3611867565b611cc781611cc18454611ba3565b84611c4b565b602080601f831160018114611cfc5760008415611ce45750858301515b600019600386901b1c1916600185901b178555611c91565b600085815260208120601f198616915b82811015611d2b57888601518255948401946001909101908401611d0c565b5085821015611d495787850151600019600388901b60f8161c191681555b5050505050600190811b01905550565b86815260c060208201526000611d7260c0830188611758565b8281036040840152611d848188611758565b90508281036060840152611d988187611758565b90508281036080840152611dac8186611758565b9150508260a0830152979650505050505050565b848152836020820152608060408201526000611ddf6080830185611758565b8281036060840152611df18185611758565b979650505050505050565b60008351611e0e818460208801611734565b835190830190611e22818360208801611734565b01949350505050565b60208082526025908201527f4552433732313a207472616e736665722066726f6d20696e636f72726563742060408201526437bbb732b960d91b606082015260800190565b60208082526032908201527f4552433732313a207472616e7366657220746f206e6f6e20455243373231526560408201527131b2b4bb32b91034b6b83632b6b2b73a32b960711b606082015260800190565b6001600160a01b038581168252841660208201526040810183905260806060820181905260009061182190830184611758565b600060208284031215611f0757600080fd5b815161148e8161170156fea264697066735822122060965e0d97a416632b582688ba2228f3c5af1c7f4f9cdb37ff3936331e462f6b64736f6c63430008110033",
  "linkReferences": {},
  "deployedLinkReferences": {}
}