{
  "_format": "hh-sol-artifact-1",
  "contractName": "ShelterDonation",
  "sourceName": "contracts/ShelterDonation.sol",
  "abi": [
    {
      "inputs": [
        {
          "internalType": "address",
          "name": "_shelter",
          "type": "address"
        },
        {
          "internalType": "address",
          "name": "_wldToken",
          "type": "address"
        },
        {
          "internalType": "address",
          "name": "_usdcToken",
          "type": "address"
        }
      ],
      "stateMutability": "nonpayable",
      "type": "constructor"
    },
    {
      "anonymous": false,
      "inputs": [
        {
          "indexed": true,
          "internalType": "address",
          "name": "donor",
          "type": "address"
        },
        {
          "indexed": false,
          "internalType": "uint256",
          "name": "amount",
          "type": "uint256"
        },
        {
          "indexed": false,
          "internalType": "string",
          "name": "token",
          "type": "string"
        }
      ],
      "name": "DonationReceived",
      "type": "event"
    },
    {
      "inputs": [
        {
          "internalType": "uint256",
          "name": "amount",
          "type": "uint256"
        }
      ],
      "name": "donateUSDC",
      "outputs": [],
      "stateMutability": "nonpayable",
      "type": "function"
    },
    {
      "inputs": [
        {
          "internalType": "uint256",
          "name": "amount",
          "type": "uint256"
        }
      ],
      "name": "donateWLD",
      "outputs": [],
      "stateMutability": "nonpayable",
      "type": "function"
    },
    {
      "inputs": [],
      "name": "shelter",
      "outputs": [
        {
          "internalType": "address",
          "name": "",
          "type": "address"
        }
      ],
      "stateMutability": "view",
      "type": "function"
    },
    {
      "inputs": [],
      "name": "usdcToken",
      "outputs": [
        {
          "internalType": "contract IERC20",
          "name": "",
          "type": "address"
        }
      ],
      "stateMutability": "view",
      "type": "function"
    },
    {
      "inputs": [],
      "name": "wldToken",
      "outputs": [
        {
          "internalType": "contract IERC20",
          "name": "",
          "type": "address"
        }
      ],
      "stateMutability": "view",
      "type": "function"
    }
  ],
  "bytecode": "0x608060405234801561001057600080fd5b506040516103e83803806103e883398101604081905261002f9161008d565b600080546001600160a01b039485166001600160a01b0319918216179091556001805493851693821693909317909255600280549190931691161790556100d0565b80516001600160a01b038116811461008857600080fd5b919050565b6000806000606084860312156100a257600080fd5b6100ab84610071565b92506100b960208501610071565b91506100c760408501610071565b90509250925092565b610309806100df6000396000f3fe608060405234801561001057600080fd5b50600436106100575760003560e01c806311c637a11461005c57806311eac855146100715780639be3783d146100a0578063bf157be5146100b3578063f9ba9f71146100c6575b600080fd5b61006f61006a366004610291565b6100d9565b005b600254610084906001600160a01b031681565b6040516001600160a01b03909116815260200160405180910390f35b600154610084906001600160a01b031681565b600054610084906001600160a01b031681565b61006f6100d4366004610291565b6101ba565b6001546000546040516323b872dd60e01b81523360048201526001600160a01b039182166024820152604481018490529116906323b872dd906064016020604051808303816000875af1158015610134573d6000803e3d6000fd5b505050506040513d601f19601f8201168201806040525081019061015891906102aa565b50336001600160a01b03167ffa5658cbb5d60363acba0d281bddcf21cc9e7ea6053267531b4cdc36d5df7a8a826040516101af9181526040602082018190526003908201526215d31160ea1b606082015260800190565b60405180910390a250565b6002546000546040516323b872dd60e01b81523360048201526001600160a01b039182166024820152604481018490529116906323b872dd906064016020604051808303816000875af1158015610215573d6000803e3d6000fd5b505050506040513d601f19601f8201168201806040525081019061023991906102aa565b50336001600160a01b03167ffa5658cbb5d60363acba0d281bddcf21cc9e7ea6053267531b4cdc36d5df7a8a826040516101af918152604060208201819052600490820152635553444360e01b606082015260800190565b6000602082840312156102a357600080fd5b5035919050565b6000602082840312156102bc57600080fd5b815180151581146102cc57600080fd5b939250505056fea2646970667358221220ba9656f722f404e798ead59026aa60a0a1f99fa0789d5acabe246f029dd7971964736f6c63430008110033",
  "linkReferences": {},
  "deployedLinkReferences": {}
}